{
  "contractName": "Crypto",
  "abi": [
    {
      "inputs": [
        {
          "internalType": "address payable",
          "name": "_depositTo",
          "type": "address"
        }
      ],
      "stateMutability": "nonpayable",
      "type": "constructor"
    },
    {
      "anonymous": false,
      "inputs": [
        {
          "indexed": true,
          "internalType": "address",
          "name": "tokenOwner",
          "type": "address"
        },
        {
          "indexed": true,
          "internalType": "address",
          "name": "spender",
          "type": "address"
        },
        {
          "indexed": false,
          "internalType": "uint256",
          "name": "tokens",
          "type": "uint256"
        }
      ],
      "name": "Approval",
      "type": "event"
    },
    {
      "anonymous": false,
      "inputs": [
        {
          "indexed": false,
          "internalType": "address",
          "name": "investor",
          "type": "address"
        },
        {
          "indexed": false,
          "internalType": "uint256",
          "name": "value",
          "type": "uint256"
        },
        {
          "indexed": false,
          "internalType": "uint256",
          "name": "tokens",
          "type": "uint256"
        }
      ],
      "name": "Invest",
      "type": "event"
    },
    {
      "anonymous": false,
      "inputs": [
        {
          "indexed": true,
          "internalType": "address",
          "name": "from",
          "type": "address"
        },
        {
          "indexed": true,
          "internalType": "address",
          "name": "to",
          "type": "address"
        },
        {
          "indexed": false,
          "internalType": "uint256",
          "name": "tokens",
          "type": "uint256"
        }
      ],
      "name": "Transfer",
      "type": "event"
    },
    {
      "inputs": [
        {
          "internalType": "address",
          "name": "",
          "type": "address"
        }
      ],
      "name": "balances",
      "outputs": [
        {
          "internalType": "uint256",
          "name": "",
          "type": "uint256"
        }
      ],
      "stateMutability": "view",
      "type": "function",
      "constant": true
    },
    {
      "inputs": [],
      "name": "decimal",
      "outputs": [
        {
          "internalType": "uint256",
          "name": "",
          "type": "uint256"
        }
      ],
      "stateMutability": "view",
      "type": "function",
      "constant": true
    },
    {
      "inputs": [],
      "name": "depositTo",
      "outputs": [
        {
          "internalType": "address payable",
          "name": "",
          "type": "address"
        }
      ],
      "stateMutability": "view",
      "type": "function",
      "constant": true
    },
    {
      "inputs": [],
      "name": "founder",
      "outputs": [
        {
          "internalType": "address",
          "name": "",
          "type": "address"
        }
      ],
      "stateMutability": "view",
      "type": "function",
      "constant": true
    },
    {
      "inputs": [],
      "name": "maxInvestment",
      "outputs": [
        {
          "internalType": "uint256",
          "name": "",
          "type": "uint256"
        }
      ],
      "stateMutability": "view",
      "type": "function",
      "constant": true
    },
    {
      "inputs": [],
      "name": "minInvestment",
      "outputs": [
        {
          "internalType": "uint256",
          "name": "",
          "type": "uint256"
        }
      ],
      "stateMutability": "view",
      "type": "function",
      "constant": true
    },
    {
      "inputs": [],
      "name": "name",
      "outputs": [
        {
          "internalType": "string",
          "name": "",
          "type": "string"
        }
      ],
      "stateMutability": "view",
      "type": "function",
      "constant": true
    },
    {
      "inputs": [],
      "name": "raisedAmount",
      "outputs": [
        {
          "internalType": "uint256",
          "name": "",
          "type": "uint256"
        }
      ],
      "stateMutability": "view",
      "type": "function",
      "constant": true
    },
    {
      "inputs": [],
      "name": "symbol",
      "outputs": [
        {
          "internalType": "string",
          "name": "",
          "type": "string"
        }
      ],
      "stateMutability": "view",
      "type": "function",
      "constant": true
    },
    {
      "inputs": [],
      "name": "tokenCost",
      "outputs": [
        {
          "internalType": "uint256",
          "name": "",
          "type": "uint256"
        }
      ],
      "stateMutability": "view",
      "type": "function",
      "constant": true
    },
    {
      "inputs": [],
      "name": "totalSupply",
      "outputs": [
        {
          "internalType": "uint256",
          "name": "",
          "type": "uint256"
        }
      ],
      "stateMutability": "view",
      "type": "function",
      "constant": true
    },
    {
      "stateMutability": "payable",
      "type": "receive",
      "payable": true
    },
    {
      "inputs": [
        {
          "internalType": "address",
          "name": "tokenOwner",
          "type": "address"
        }
      ],
      "name": "balanceOf",
      "outputs": [
        {
          "internalType": "uint256",
          "name": "balance",
          "type": "uint256"
        }
      ],
      "stateMutability": "view",
      "type": "function",
      "constant": true
    },
    {
      "inputs": [
        {
          "internalType": "address",
          "name": "to",
          "type": "address"
        },
        {
          "internalType": "uint256",
          "name": "tokens",
          "type": "uint256"
        }
      ],
      "name": "transfer",
      "outputs": [
        {
          "internalType": "bool",
          "name": "success",
          "type": "bool"
        }
      ],
      "stateMutability": "nonpayable",
      "type": "function"
    },
    {
      "inputs": [],
      "name": "buyTokens",
      "outputs": [
        {
          "internalType": "bool",
          "name": "success",
          "type": "bool"
        }
      ],
      "stateMutability": "payable",
      "type": "function",
      "payable": true
    },
    {
      "inputs": [
        {
          "internalType": "address",
          "name": "tokenOwner",
          "type": "address"
        },
        {
          "internalType": "address",
          "name": "spender",
          "type": "address"
        }
      ],
      "name": "allowance",
      "outputs": [
        {
          "internalType": "uint256",
          "name": "",
          "type": "uint256"
        }
      ],
      "stateMutability": "view",
      "type": "function",
      "constant": true
    },
    {
      "inputs": [
        {
          "internalType": "address",
          "name": "spender",
          "type": "address"
        },
        {
          "internalType": "uint256",
          "name": "tokens",
          "type": "uint256"
        }
      ],
      "name": "approve",
      "outputs": [
        {
          "internalType": "bool",
          "name": "success",
          "type": "bool"
        }
      ],
      "stateMutability": "nonpayable",
      "type": "function"
    },
    {
      "inputs": [
        {
          "internalType": "address",
          "name": "from",
          "type": "address"
        },
        {
          "internalType": "address",
          "name": "to",
          "type": "address"
        },
        {
          "internalType": "uint256",
          "name": "tokens",
          "type": "uint256"
        }
      ],
      "name": "transferFrom",
      "outputs": [
        {
          "internalType": "bool",
          "name": "success",
          "type": "bool"
        }
      ],
      "stateMutability": "nonpayable",
      "type": "function"
    }
  ],
  "bytecode": "0x60806040526040518060400160405280600781526020017f43727970746f73000000000000000000000000000000000000000000000000008152506000908051906020019062000051929190620001f4565b506040518060400160405280600481526020017f4352505400000000000000000000000000000000000000000000000000000000815250600190805190602001906200009f929190620001f4565b50600060025565b5e620f48000600455662386f26fc10000600555674563918244f40000600655348015620000d357600080fd5b506040516200175d3803806200175d8339818101604052810190620000f99190620002bb565b80600960006101000a81548173ffffffffffffffffffffffffffffffffffffffff021916908373ffffffffffffffffffffffffffffffffffffffff1602179055506298968060038190555033600860006101000a81548173ffffffffffffffffffffffffffffffffffffffff021916908373ffffffffffffffffffffffffffffffffffffffff160217905550600354600a6000600860009054906101000a900473ffffffffffffffffffffffffffffffffffffffff1673ffffffffffffffffffffffffffffffffffffffff1673ffffffffffffffffffffffffffffffffffffffff16815260200190815260200160002081905550506200039a565b82805462000202906200031b565b90600052602060002090601f01602090048101928262000226576000855562000272565b82601f106200024157805160ff191683800117855562000272565b8280016001018555821562000272579182015b828111156200027157825182559160200191906001019062000254565b5b50905062000281919062000285565b5090565b5b80821115620002a057600081600090555060010162000286565b5090565b600081519050620002b58162000380565b92915050565b600060208284031215620002ce57600080fd5b6000620002de84828501620002a4565b91505092915050565b6000620002f482620002fb565b9050919050565b600073ffffffffffffffffffffffffffffffffffffffff82169050919050565b600060028204905060018216806200033457607f821691505b602082108114156200034b576200034a62000351565b5b50919050565b7f4e487b7100000000000000000000000000000000000000000000000000000000600052602260045260246000fd5b6200038b81620002e7565b81146200039757600080fd5b50565b6113b380620003aa6000396000f3fe6080604052600436106101015760003560e01c806370a082311161009557806395d89b411161006457806395d89b4114610362578063a9059cbb1461038d578063c59ee1dc146103ca578063d0febe4c146103f5578063dd62ed3e1461041357610111565b806370a08231146102a457806376809ce3146102e15780638ac2c6801461030c578063912221d51461033757610111565b806318160ddd116100d157806318160ddd146101d457806323b872dd146101ff57806327e235e31461023c5780634d853ee51461027957610111565b80622e13161461011657806306a248c61461014157806306fdde031461016c578063095ea7b31461019757610111565b366101115761010e610450565b50005b600080fd5b34801561012257600080fd5b5061012b61064a565b6040516101389190611088565b60405180910390f35b34801561014d57600080fd5b50610156610650565b6040516101639190610fb9565b60405180910390f35b34801561017857600080fd5b50610181610676565b60405161018e9190611026565b60405180910390f35b3480156101a357600080fd5b506101be60048036038101906101b99190610ea7565b610704565b6040516101cb919061100b565b60405180910390f35b3480156101e057600080fd5b506101e961084f565b6040516101f69190611088565b60405180910390f35b34801561020b57600080fd5b5061022660048036038101906102219190610e58565b610855565b604051610233919061100b565b60405180910390f35b34801561024857600080fd5b50610263600480360381019061025e9190610df3565b610a76565b6040516102709190611088565b60405180910390f35b34801561028557600080fd5b5061028e610a8e565b60405161029b9190610f9e565b60405180910390f35b3480156102b057600080fd5b506102cb60048036038101906102c69190610df3565b610ab4565b6040516102d89190611088565b60405180910390f35b3480156102ed57600080fd5b506102f6610afd565b6040516103039190611088565b60405180910390f35b34801561031857600080fd5b50610321610b03565b60405161032e9190611088565b60405180910390f35b34801561034357600080fd5b5061034c610b09565b6040516103599190611088565b60405180910390f35b34801561036e57600080fd5b50610377610b0f565b6040516103849190611026565b60405180910390f35b34801561039957600080fd5b506103b460048036038101906103af9190610ea7565b610b9d565b6040516103c1919061100b565b60405180910390f35b3480156103d657600080fd5b506103df610d3c565b6040516103ec9190611088565b60405180910390f35b6103fd610450565b60405161040a919061100b565b60405180910390f35b34801561041f57600080fd5b5061043a60048036038101906104359190610e1c565b610d42565b6040516104479190611088565b60405180910390f35b6000600554341015801561046657506006543411155b6104a5576040517f08c379a000000000000000000000000000000000000000000000000000000000815260040161049c90611048565b60405180910390fd5b6000600454346104b59190611115565b9050600960009054906101000a900473ffffffffffffffffffffffffffffffffffffffff1673ffffffffffffffffffffffffffffffffffffffff166108fc349081150290604051600060405180830381858888f1935050505015801561051f573d6000803e3d6000fd5b5080600a60003373ffffffffffffffffffffffffffffffffffffffff1673ffffffffffffffffffffffffffffffffffffffff168152602001908152602001600020600082825461056f91906110bf565b9250508190555080600a6000600860009054906101000a900473ffffffffffffffffffffffffffffffffffffffff1673ffffffffffffffffffffffffffffffffffffffff1673ffffffffffffffffffffffffffffffffffffffff16815260200190815260200160002060008282546105e79190611146565b92505081905550346007600082825461060091906110bf565b925050819055507f4ae4bd7655e0d350876a23cd90c4227b13db560e34435c6a488150a9c844bf5f33348360405161063a93929190610fd4565b60405180910390a1600191505090565b60065481565b600960009054906101000a900473ffffffffffffffffffffffffffffffffffffffff1681565b6000805461068390611207565b80601f01602080910402602001604051908101604052809291908181526020018280546106af90611207565b80156106fc5780601f106106d1576101008083540402835291602001916106fc565b820191906000526020600020905b8154815290600101906020018083116106df57829003601f168201915b505050505081565b600081600a60003373ffffffffffffffffffffffffffffffffffffffff1673ffffffffffffffffffffffffffffffffffffffff16815260200190815260200160002054101561075257600080fd5b6000821161075f57600080fd5b81600b60003373ffffffffffffffffffffffffffffffffffffffff1673ffffffffffffffffffffffffffffffffffffffff16815260200190815260200160002060008573ffffffffffffffffffffffffffffffffffffffff1673ffffffffffffffffffffffffffffffffffffffff168152602001908152602001600020819055508273ffffffffffffffffffffffffffffffffffffffff163373ffffffffffffffffffffffffffffffffffffffff167f8c5be1e5ebec7d5bd14f71427d1e84f3dd0314c0f7b2291e5b200ac8c7c3b9258460405161083d9190611088565b60405180910390a36001905092915050565b60035481565b600081600b60008673ffffffffffffffffffffffffffffffffffffffff1673ffffffffffffffffffffffffffffffffffffffff16815260200190815260200160002060008573ffffffffffffffffffffffffffffffffffffffff1673ffffffffffffffffffffffffffffffffffffffff1681526020019081526020016000205410156108e057600080fd5b81600a60008673ffffffffffffffffffffffffffffffffffffffff1673ffffffffffffffffffffffffffffffffffffffff16815260200190815260200160002054101561092c57600080fd5b81600a60008673ffffffffffffffffffffffffffffffffffffffff1673ffffffffffffffffffffffffffffffffffffffff168152602001908152602001600020600082825461097b9190611146565b9250508190555081600a60008573ffffffffffffffffffffffffffffffffffffffff1673ffffffffffffffffffffffffffffffffffffffff16815260200190815260200160002060008282546109d191906110bf565b9250508190555081600b60008673ffffffffffffffffffffffffffffffffffffffff1673ffffffffffffffffffffffffffffffffffffffff16815260200190815260200160002060008573ffffffffffffffffffffffffffffffffffffffff1673ffffffffffffffffffffffffffffffffffffffff1681526020019081526020016000206000828254610a649190611146565b92505081905550600190509392505050565b600a6020528060005260406000206000915090505481565b600860009054906101000a900473ffffffffffffffffffffffffffffffffffffffff1681565b6000600a60008373ffffffffffffffffffffffffffffffffffffffff1673ffffffffffffffffffffffffffffffffffffffff168152602001908152602001600020549050919050565b60025481565b60055481565b60045481565b60018054610b1c90611207565b80601f0160208091040260200160405190810160405280929190818152602001828054610b4890611207565b8015610b955780601f10610b6a57610100808354040283529160200191610b95565b820191906000526020600020905b815481529060010190602001808311610b7857829003601f168201915b505050505081565b600081600a60003373ffffffffffffffffffffffffffffffffffffffff1673ffffffffffffffffffffffffffffffffffffffff168152602001908152602001600020541015610c21576040517f08c379a0000000000000000000000000000000000000000000000000000000008152600401610c1890611068565b60405180910390fd5b81600a60008573ffffffffffffffffffffffffffffffffffffffff1673ffffffffffffffffffffffffffffffffffffffff1681526020019081526020016000206000828254610c7091906110bf565b9250508190555081600a60003373ffffffffffffffffffffffffffffffffffffffff1673ffffffffffffffffffffffffffffffffffffffff1681526020019081526020016000206000828254610cc69190611146565b925050819055508273ffffffffffffffffffffffffffffffffffffffff163373ffffffffffffffffffffffffffffffffffffffff167fddf252ad1be2c89b69c2b068fc378daa952ba7f163c4a11628f55a4df523b3ef84604051610d2a9190611088565b60405180910390a36001905092915050565b60075481565b6000600b60008473ffffffffffffffffffffffffffffffffffffffff1673ffffffffffffffffffffffffffffffffffffffff16815260200190815260200160002060008373ffffffffffffffffffffffffffffffffffffffff1673ffffffffffffffffffffffffffffffffffffffff16815260200190815260200160002054905092915050565b600081359050610dd88161134f565b92915050565b600081359050610ded81611366565b92915050565b600060208284031215610e0557600080fd5b6000610e1384828501610dc9565b91505092915050565b60008060408385031215610e2f57600080fd5b6000610e3d85828601610dc9565b9250506020610e4e85828601610dc9565b9150509250929050565b600080600060608486031215610e6d57600080fd5b6000610e7b86828701610dc9565b9350506020610e8c86828701610dc9565b9250506040610e9d86828701610dde565b9150509250925092565b60008060408385031215610eba57600080fd5b6000610ec885828601610dc9565b9250506020610ed985828601610dde565b9150509250929050565b610eec8161118c565b82525050565b610efb8161117a565b82525050565b610f0a8161119e565b82525050565b6000610f1b826110a3565b610f2581856110ae565b9350610f358185602086016111d4565b610f3e816112c6565b840191505092915050565b6000610f566012836110ae565b9150610f61826112d7565b602082019050919050565b6000610f796021836110ae565b9150610f8482611300565b604082019050919050565b610f98816111ca565b82525050565b6000602082019050610fb36000830184610ef2565b92915050565b6000602082019050610fce6000830184610ee3565b92915050565b6000606082019050610fe96000830186610ef2565b610ff66020830185610f8f565b6110036040830184610f8f565b949350505050565b60006020820190506110206000830184610f01565b92915050565b600060208201905081810360008301526110408184610f10565b905092915050565b6000602082019050818103600083015261106181610f49565b9050919050565b6000602082019050818103600083015261108181610f6c565b9050919050565b600060208201905061109d6000830184610f8f565b92915050565b600081519050919050565b600082825260208201905092915050565b60006110ca826111ca565b91506110d5836111ca565b9250827fffffffffffffffffffffffffffffffffffffffffffffffffffffffffffffffff0382111561110a57611109611239565b5b828201905092915050565b6000611120826111ca565b915061112b836111ca565b92508261113b5761113a611268565b5b828204905092915050565b6000611151826111ca565b915061115c836111ca565b92508282101561116f5761116e611239565b5b828203905092915050565b6000611185826111aa565b9050919050565b6000611197826111aa565b9050919050565b60008115159050919050565b600073ffffffffffffffffffffffffffffffffffffffff82169050919050565b6000819050919050565b60005b838110156111f25780820151818401526020810190506111d7565b83811115611201576000848401525b50505050565b6000600282049050600182168061121f57607f821691505b6020821081141561123357611232611297565b5b50919050565b7f4e487b7100000000000000000000000000000000000000000000000000000000600052601160045260246000fd5b7f4e487b7100000000000000000000000000000000000000000000000000000000600052601260045260246000fd5b7f4e487b7100000000000000000000000000000000000000000000000000000000600052602260045260246000fd5b6000601f19601f8301169050919050565b7f4e6f742070726f70657220616d6f756e74210000000000000000000000000000600082015250565b7f594f5520444f4e275420484156452053554646494349454e5420544f4b454e5360008201527f2100000000000000000000000000000000000000000000000000000000000000602082015250565b6113588161117a565b811461136357600080fd5b50565b61136f816111ca565b811461137a57600080fd5b5056fea2646970667358221220d70286b815dba0caee758b6410defcf8ca5c948bec26eea782f731e817ed4bbb64736f6c63430008030033",
  "immutableReferences": {},
  "source": "//SPDX-License-Identifier: GPL-3.0\n \npragma solidity >=0.5.0 <0.9.0;\n\n\n// an interface cannot have any state variable and all the functions should be external\ninterface ERC20Interface{\n    // a functional token that can be transferred from one address to another, not all six functions are mandatory, but only the first three. \n    function totalSupply() external view returns (uint);\n    function balanceOf(address tokenOwner) external view returns(uint balance);\n    // transfer() function is used to send token from one user to another, but it does not work well when tokens are being used to pay for a function in a smart contract\n    function transfer(address to, uint tokens) external returns(bool success);\n    \n    \n    \n    // for an address, allowance can only be set by the owner of the tokens\n    function allowance(address tokenOwner, address spender) external view returns(uint remaining);\n    // together these two functions approve() and transferFrom() permit to the token owner to give another address approval to transfer up to a number of tokens known as allowance\n    function approve(address spender, uint tokens) external returns (bool success);\n    function transferFrom(address from , address to , uint tokens) external returns (bool success);\n    \n    event Transfer(address indexed from , address indexed to, uint tokens);\n    event Approval(address indexed tokenOwner, address indexed spender, uint tokens);\n}\n\n\n/**\nthis Crypto contract is inheriting properties of ERC20Interface\nWhen a contract inherits properties of an interface or an abstract contract then it must implement all the functions contained in parent contract \nelse the contract must be marked abstract  \nand abstract contract cannot be deployed */\ncontract Crypto is ERC20Interface{\n    string public name = \"Cryptos\";\n    string public symbol = \"CRPT\";\n    uint public decimal = 0; // 18 is used mostly\n    uint public override totalSupply; // overrride keyword is necessary to overrirde a fucntion \n    // and declaring state variable as public creates a getter function\n    \n    uint public tokenCost = 0.0002 ether; // 1 ether = 5000 token (CRPT)\n    uint public minInvestment = 0.01 ether;\n    uint public maxInvestment = 5 ether;\n    uint public raisedAmount; // whenever someone buys token using eth, ethBalance will increase \n    \n    // Not part of ERC-20 token but useful\n    address public founder;\n    \n    address payable public depositTo; // investor will send eth to this address\n    \n    // NOTE: each ethereum address can have a number of tokens, by default the value at any address will be ERC-20\n    mapping(address => uint) public balances;\n    // balances[0x111...] = 100; this is how the contract will store the tokens of each address\n    \n    \n    // this mapping includes accounts apporved to withdraw from a given account together with the withdrawal sum allowed for each of them\n    \n    mapping(address => mapping(address => uint)) allowed;\n    // allowed[0x111...][0x222...] = 100; this is how the \n    // owner(0x111...) allows the spender(0x222...) to spend 100 tokens\n    \n    constructor(address payable _depositTo){\n        depositTo = _depositTo; // at deployment owner will set a deposit address where all the eth amount will deposit after buying tokens\n        totalSupply = 10000000; // 10M\n        founder = msg.sender;\n        balances[founder] = totalSupply; // after deploying, founder will have 1 million tokens\n    }\n    \n    function balanceOf(address tokenOwner) public view override returns (uint balance){\n        return balances[tokenOwner];\n    }\n    \n    // this function transfers a number to token from the account who calls it and has enough token to a recipient \n    // this function makes the tokens transferable, \n    // virtual means, the function can change its behaviour in the contract by overriding\n    // anyone can transfer their tokens to another address\n    function transfer(address to, uint tokens) public override returns(bool success){\n        // check if sender has enough balance\n        require(balances[msg.sender] >= tokens, \"YOU DON'T HAVE SUFFICIENT TOKENS!\");\n        \n        balances[to] += tokens; // if the recipient is new then if we search this new recipient in balances mapping then it will return 0 and given token value will be added to 0.\n        balances[msg.sender] -= tokens; // updating the balance of sender \n        \n        // after updating the balances of the sender and recipient, the function should emit an event\n        // emit is a log message which is saved on the blocks \n        // In the interface, we have already declared the event, which is inheritable into the contract so we will can just emit it\n        emit Transfer(msg.sender, to, tokens);\n        \n        return true;\n        \n        // NOTE: we have followed the general guidelines, that functions revert instead of returing false of failure\n        // so, on failure, function will revert and on success, it will return true\n    }\n    \n    \n    event Invest(address investor, uint value, uint tokens);\n    // anyone can buy tokens using ETH \n    function buyTokens() public payable returns(bool success) {\n        require(msg.value >= minInvestment && msg.value <= maxInvestment, 'Not proper amount!');\n        \n        uint tokens = msg.value / tokenCost;\n        \n        // now make transaction\n        depositTo.transfer(msg.value);\n        \n        balances[msg.sender] += tokens;\n        balances[founder] -= tokens;\n        raisedAmount += msg.value;\n        \n        // finally, emit an event which is a log message written to the blockchain that can be processed by frontend\n        emit Invest(msg.sender, msg.value, tokens);\n        \n        return true;\n    }\n    \n    // the contract will accept eth sent to address if there is a payable function called receive\n    receive() payable external{\n        buyTokens(); // this function will be automatically called when somebody sends ether directly to the contract's address\n    }\n    \n    \n    \n    // this function will return that how many tokens owner has allowed the spender to withdraw \n    function allowance(address tokenOwner, address spender) view public override returns(uint){\n        return allowed[tokenOwner][spender];\n    }\n    \n    // this function will be called by the token owner to set the allowance which is the amount that can be spent by the spender from his account\n    function approve(address spender, uint tokens) public override returns(bool success){\n        require(balances[msg.sender] >= tokens);\n        require(tokens > 0);\n        \n        allowed[msg.sender][spender] = tokens;\n        \n        emit Approval(msg.sender, spender, tokens);\n        // NOTE: some implementations also define another two functions --> increase approval and decrease approval\n        // our function only sets the allowance for a spender to fixed value, however they aren't part of the official ERC-20 interface\n        return true;\n    }\n    \n    // it allows the spender to withdraw from the owner's account multiple times up to the allowance value\n    // this function will be called by the account that wants to withdraw tokens from the holder's account to his own\n    // transferFrom() is called in behalf of token's owner after the owner approved another address to spend the tokens he possesses\n    function transferFrom(address from, address to, uint tokens) public virtual override returns(bool success){\n        require(allowed[from][to] >= tokens);\n        require(balances[from] >= tokens);\n        \n        balances[from] -= tokens;\n        balances[to] += tokens;\n        \n        // the allowance has decreased with the amount already withdrawn\n        allowed[from][to] -= tokens;\n        \n        return true;\n        \n    }\n}\n\n\n\n\n\n\n\n\n\n\n\n\n\n\n",
  "sourcePath": "/Users/aloora/Documents/smartContractsWithFrontendProjects/erc20token/contracts/ERC20Token.sol",
  "compiler": {
    "name": "solc",
    "version": "0.8.3+commit.8d00100c.Emscripten.clang"
  },
  "schemaVersion": "3.4.1",
  "updatedAt": "2021-06-29T17:21:00.472Z",
  "networkType": "ethereum",
  "devdoc": {
    "kind": "dev",
    "methods": {},
    "version": 1
  },
  "userdoc": {
    "kind": "user",
    "methods": {},
    "notice": "this Crypto contract is inheriting properties of ERC20Interface When a contract inherits properties of an interface or an abstract contract then it must implement all the functions contained in parent contract  else the contract must be marked abstract   and abstract contract cannot be deployed ",
    "version": 1
  }
}